{
  "_format": "hh-sol-artifact-1",
  "contractName": "StableCoin",
  "sourceName": "contracts/StableCoin.sol",
  "abi": [
    {
      "inputs": [],
      "stateMutability": "nonpayable",
      "type": "constructor"
    },
    {
      "anonymous": false,
      "inputs": [
        {
          "indexed": true,
          "internalType": "address",
          "name": "owner",
          "type": "address"
        },
        {
          "indexed": true,
          "internalType": "address",
          "name": "spender",
          "type": "address"
        },
        {
          "indexed": false,
          "internalType": "uint256",
          "name": "value",
          "type": "uint256"
        }
      ],
      "name": "Approval",
      "type": "event"
    },
    {
      "anonymous": false,
      "inputs": [
        {
          "indexed": true,
          "internalType": "address",
          "name": "from",
          "type": "address"
        },
        {
          "indexed": true,
          "internalType": "address",
          "name": "to",
          "type": "address"
        },
        {
          "indexed": false,
          "internalType": "uint256",
          "name": "value",
          "type": "uint256"
        }
      ],
      "name": "Transfer",
      "type": "event"
    },
    {
      "inputs": [
        {
          "internalType": "address",
          "name": "owner",
          "type": "address"
        },
        {
          "internalType": "address",
          "name": "spender",
          "type": "address"
        }
      ],
      "name": "allowance",
      "outputs": [
        {
          "internalType": "uint256",
          "name": "",
          "type": "uint256"
        }
      ],
      "stateMutability": "view",
      "type": "function"
    },
    {
      "inputs": [
        {
          "internalType": "address",
          "name": "spender",
          "type": "address"
        },
        {
          "internalType": "uint256",
          "name": "amount",
          "type": "uint256"
        }
      ],
      "name": "approve",
      "outputs": [
        {
          "internalType": "bool",
          "name": "",
          "type": "bool"
        }
      ],
      "stateMutability": "nonpayable",
      "type": "function"
    },
    {
      "inputs": [
        {
          "internalType": "address",
          "name": "account",
          "type": "address"
        }
      ],
      "name": "balanceOf",
      "outputs": [
        {
          "internalType": "uint256",
          "name": "",
          "type": "uint256"
        }
      ],
      "stateMutability": "view",
      "type": "function"
    },
    {
      "inputs": [],
      "name": "decimals",
      "outputs": [
        {
          "internalType": "uint8",
          "name": "",
          "type": "uint8"
        }
      ],
      "stateMutability": "view",
      "type": "function"
    },
    {
      "inputs": [
        {
          "internalType": "address",
          "name": "spender",
          "type": "address"
        },
        {
          "internalType": "uint256",
          "name": "subtractedValue",
          "type": "uint256"
        }
      ],
      "name": "decreaseAllowance",
      "outputs": [
        {
          "internalType": "bool",
          "name": "",
          "type": "bool"
        }
      ],
      "stateMutability": "nonpayable",
      "type": "function"
    },
    {
      "inputs": [
        {
          "internalType": "address",
          "name": "spender",
          "type": "address"
        },
        {
          "internalType": "uint256",
          "name": "addedValue",
          "type": "uint256"
        }
      ],
      "name": "increaseAllowance",
      "outputs": [
        {
          "internalType": "bool",
          "name": "",
          "type": "bool"
        }
      ],
      "stateMutability": "nonpayable",
      "type": "function"
    },
    {
      "inputs": [
        {
          "internalType": "uint256",
          "name": "value",
          "type": "uint256"
        },
        {
          "internalType": "address",
          "name": "_address",
          "type": "address"
        }
      ],
      "name": "mint",
      "outputs": [
        {
          "internalType": "bool",
          "name": "",
          "type": "bool"
        }
      ],
      "stateMutability": "nonpayable",
      "type": "function"
    },
    {
      "inputs": [],
      "name": "name",
      "outputs": [
        {
          "internalType": "string",
          "name": "",
          "type": "string"
        }
      ],
      "stateMutability": "view",
      "type": "function"
    },
    {
      "inputs": [],
      "name": "symbol",
      "outputs": [
        {
          "internalType": "string",
          "name": "",
          "type": "string"
        }
      ],
      "stateMutability": "view",
      "type": "function"
    },
    {
      "inputs": [],
      "name": "totalSupply",
      "outputs": [
        {
          "internalType": "uint256",
          "name": "",
          "type": "uint256"
        }
      ],
      "stateMutability": "view",
      "type": "function"
    },
    {
      "inputs": [
        {
          "internalType": "address",
          "name": "to",
          "type": "address"
        },
        {
          "internalType": "uint256",
          "name": "amount",
          "type": "uint256"
        }
      ],
      "name": "transfer",
      "outputs": [
        {
          "internalType": "bool",
          "name": "",
          "type": "bool"
        }
      ],
      "stateMutability": "nonpayable",
      "type": "function"
    },
    {
      "inputs": [
        {
          "internalType": "address",
          "name": "from",
          "type": "address"
        },
        {
          "internalType": "address",
          "name": "to",
          "type": "address"
        },
        {
          "internalType": "uint256",
          "name": "amount",
          "type": "uint256"
        }
      ],
      "name": "transferFrom",
      "outputs": [
        {
          "internalType": "bool",
          "name": "",
          "type": "bool"
        }
      ],
      "stateMutability": "nonpayable",
      "type": "function"
    }
  ],
  "bytecode": "0x60806040523480156200001157600080fd5b5060408051808201825260088152672aa9a21021b7b4b760c11b6020808301918252835180850190945260048452635553444360e01b9084015281519192916200005e916003916200017e565b508051620000749060049060208401906200017e565b505050620000ae6200008b620000b460201b60201c565b620000996012600a62000339565b620000a890620186a06200034e565b620000b8565b620003c8565b3390565b6001600160a01b038216620001135760405162461bcd60e51b815260206004820152601f60248201527f45524332303a206d696e7420746f20746865207a65726f206164647265737300604482015260640160405180910390fd5b806002600082825462000127919062000370565b90915550506001600160a01b038216600081815260208181526040808320805486019055518481527fddf252ad1be2c89b69c2b068fc378daa952ba7f163c4a11628f55a4df523b3ef910160405180910390a35050565b8280546200018c906200038b565b90600052602060002090601f016020900481019282620001b05760008555620001fb565b82601f10620001cb57805160ff1916838001178555620001fb565b82800160010185558215620001fb579182015b82811115620001fb578251825591602001919060010190620001de565b50620002099291506200020d565b5090565b5b808211156200020957600081556001016200020e565b634e487b7160e01b600052601160045260246000fd5b600181815b808511156200027b5781600019048211156200025f576200025f62000224565b808516156200026d57918102915b93841c93908002906200023f565b509250929050565b600082620002945750600162000333565b81620002a35750600062000333565b8160018114620002bc5760028114620002c757620002e7565b600191505062000333565b60ff841115620002db57620002db62000224565b50506001821b62000333565b5060208310610133831016604e8410600b84101617156200030c575081810a62000333565b6200031883836200023a565b80600019048211156200032f576200032f62000224565b0290505b92915050565b600062000347838362000283565b9392505050565b60008160001904831182151516156200036b576200036b62000224565b500290565b6000821982111562000386576200038662000224565b500190565b600181811c90821680620003a057607f821691505b60208210811415620003c257634e487b7160e01b600052602260045260246000fd5b50919050565b610a6e80620003d86000396000f3fe608060405234801561001057600080fd5b50600436106100d45760003560e01c806370a0823111610081578063a457c2d71161005b578063a457c2d7146101a5578063a9059cbb146101b8578063dd62ed3e146101cb57600080fd5b806370a082311461016157806394bf804d1461018a57806395d89b411461019d57600080fd5b806323b872dd116100b257806323b872dd1461012c578063313ce5671461013f578063395093511461014e57600080fd5b806306fdde03146100d9578063095ea7b3146100f757806318160ddd1461011a575b600080fd5b6100e1610204565b6040516100ee9190610888565b60405180910390f35b61010a6101053660046108f9565b610296565b60405190151581526020016100ee565b6002545b6040519081526020016100ee565b61010a61013a366004610923565b6102ae565b604051601281526020016100ee565b61010a61015c3660046108f9565b6102d2565b61011e61016f36600461095f565b6001600160a01b031660009081526020819052604090205490565b61010a610198366004610981565b610311565b6100e1610326565b61010a6101b33660046108f9565b610335565b61010a6101c63660046108f9565b6103e4565b61011e6101d93660046109ad565b6001600160a01b03918216600090815260016020908152604080832093909416825291909152205490565b606060038054610213906109d7565b80601f016020809104026020016040519081016040528092919081815260200182805461023f906109d7565b801561028c5780601f106102615761010080835404028352916020019161028c565b820191906000526020600020905b81548152906001019060200180831161026f57829003601f168201915b5050505050905090565b6000336102a48185856103f2565b5060019392505050565b6000336102bc85828561054a565b6102c78585856105dc565b506001949350505050565b3360008181526001602090815260408083206001600160a01b03871684529091528120549091906102a4908290869061030c908790610a12565b6103f2565b600061031d82846107c9565b50600192915050565b606060048054610213906109d7565b3360008181526001602090815260408083206001600160a01b0387168452909152812054909190838110156103d75760405162461bcd60e51b815260206004820152602560248201527f45524332303a2064656372656173656420616c6c6f77616e63652062656c6f7760448201527f207a65726f00000000000000000000000000000000000000000000000000000060648201526084015b60405180910390fd5b6102c782868684036103f2565b6000336102a48185856105dc565b6001600160a01b03831661046d5760405162461bcd60e51b8152602060048201526024808201527f45524332303a20617070726f76652066726f6d20746865207a65726f2061646460448201527f726573730000000000000000000000000000000000000000000000000000000060648201526084016103ce565b6001600160a01b0382166104e95760405162461bcd60e51b815260206004820152602260248201527f45524332303a20617070726f766520746f20746865207a65726f20616464726560448201527f737300000000000000000000000000000000000000000000000000000000000060648201526084016103ce565b6001600160a01b0383811660008181526001602090815260408083209487168084529482529182902085905590518481527f8c5be1e5ebec7d5bd14f71427d1e84f3dd0314c0f7b2291e5b200ac8c7c3b925910160405180910390a3505050565b6001600160a01b0383811660009081526001602090815260408083209386168352929052205460001981146105d657818110156105c95760405162461bcd60e51b815260206004820152601d60248201527f45524332303a20696e73756666696369656e7420616c6c6f77616e636500000060448201526064016103ce565b6105d684848484036103f2565b50505050565b6001600160a01b0383166106585760405162461bcd60e51b815260206004820152602560248201527f45524332303a207472616e736665722066726f6d20746865207a65726f20616460448201527f647265737300000000000000000000000000000000000000000000000000000060648201526084016103ce565b6001600160a01b0382166106d45760405162461bcd60e51b815260206004820152602360248201527f45524332303a207472616e7366657220746f20746865207a65726f206164647260448201527f657373000000000000000000000000000000000000000000000000000000000060648201526084016103ce565b6001600160a01b038316600090815260208190526040902054818110156107635760405162461bcd60e51b815260206004820152602660248201527f45524332303a207472616e7366657220616d6f756e742065786365656473206260448201527f616c616e6365000000000000000000000000000000000000000000000000000060648201526084016103ce565b6001600160a01b03848116600081815260208181526040808320878703905593871680835291849020805487019055925185815290927fddf252ad1be2c89b69c2b068fc378daa952ba7f163c4a11628f55a4df523b3ef910160405180910390a36105d6565b6001600160a01b03821661081f5760405162461bcd60e51b815260206004820152601f60248201527f45524332303a206d696e7420746f20746865207a65726f20616464726573730060448201526064016103ce565b80600260008282546108319190610a12565b90915550506001600160a01b038216600081815260208181526040808320805486019055518481527fddf252ad1be2c89b69c2b068fc378daa952ba7f163c4a11628f55a4df523b3ef910160405180910390a35050565b600060208083528351808285015260005b818110156108b557858101830151858201604001528201610899565b818111156108c7576000604083870101525b50601f01601f1916929092016040019392505050565b80356001600160a01b03811681146108f457600080fd5b919050565b6000806040838503121561090c57600080fd5b610915836108dd565b946020939093013593505050565b60008060006060848603121561093857600080fd5b610941846108dd565b925061094f602085016108dd565b9150604084013590509250925092565b60006020828403121561097157600080fd5b61097a826108dd565b9392505050565b6000806040838503121561099457600080fd5b823591506109a4602084016108dd565b90509250929050565b600080604083850312156109c057600080fd5b6109c9836108dd565b91506109a4602084016108dd565b600181811c908216806109eb57607f821691505b60208210811415610a0c57634e487b7160e01b600052602260045260246000fd5b50919050565b60008219821115610a3357634e487b7160e01b600052601160045260246000fd5b50019056fea26469706673582212203937dcfdfbb53445e97574e01bf82ea4fd28ae7d55d62802fdf38d2a84bb21a464736f6c63430008090033",
  "linkReferences": {},
  "deployedLinkReferences": {}
}