{
  "_format": "hh-sol-artifact-1",
  "contractName": "Solarpunks",
  "sourceName": "contracts/Solarpunks.sol",
  "abi": [
    {
      "anonymous": false,
      "inputs": [
        {
          "indexed": true,
          "internalType": "address",
          "name": "owner",
          "type": "address"
        },
        {
          "indexed": true,
          "internalType": "address",
          "name": "approved",
          "type": "address"
        },
        {
          "indexed": true,
          "internalType": "uint256",
          "name": "tokenId",
          "type": "uint256"
        }
      ],
      "name": "Approval",
      "type": "event"
    },
    {
      "anonymous": false,
      "inputs": [
        {
          "indexed": true,
          "internalType": "address",
          "name": "owner",
          "type": "address"
        },
        {
          "indexed": true,
          "internalType": "address",
          "name": "operator",
          "type": "address"
        },
        {
          "indexed": false,
          "internalType": "bool",
          "name": "approved",
          "type": "bool"
        }
      ],
      "name": "ApprovalForAll",
      "type": "event"
    },
    {
      "anonymous": false,
      "inputs": [
        {
          "indexed": false,
          "internalType": "uint8",
          "name": "version",
          "type": "uint8"
        }
      ],
      "name": "Initialized",
      "type": "event"
    },
    {
      "anonymous": false,
      "inputs": [
        {
          "indexed": true,
          "internalType": "address",
          "name": "previousOwner",
          "type": "address"
        },
        {
          "indexed": true,
          "internalType": "address",
          "name": "newOwner",
          "type": "address"
        }
      ],
      "name": "OwnershipTransferred",
      "type": "event"
    },
    {
      "anonymous": false,
      "inputs": [
        {
          "indexed": false,
          "internalType": "address",
          "name": "account",
          "type": "address"
        }
      ],
      "name": "Paused",
      "type": "event"
    },
    {
      "anonymous": false,
      "inputs": [
        {
          "indexed": true,
          "internalType": "address",
          "name": "from",
          "type": "address"
        },
        {
          "indexed": true,
          "internalType": "address",
          "name": "to",
          "type": "address"
        },
        {
          "indexed": true,
          "internalType": "uint256",
          "name": "tokenId",
          "type": "uint256"
        }
      ],
      "name": "Transfer",
      "type": "event"
    },
    {
      "anonymous": false,
      "inputs": [
        {
          "indexed": false,
          "internalType": "address",
          "name": "account",
          "type": "address"
        }
      ],
      "name": "Unpaused",
      "type": "event"
    },
    {
      "inputs": [
        {
          "internalType": "address",
          "name": "to",
          "type": "address"
        },
        {
          "internalType": "uint256",
          "name": "tokenId",
          "type": "uint256"
        }
      ],
      "name": "approve",
      "outputs": [],
      "stateMutability": "nonpayable",
      "type": "function"
    },
    {
      "inputs": [
        {
          "internalType": "uint256",
          "name": "tokenId",
          "type": "uint256"
        }
      ],
      "name": "approveMetadataChange",
      "outputs": [],
      "stateMutability": "nonpayable",
      "type": "function"
    },
    {
      "inputs": [
        {
          "internalType": "address",
          "name": "owner",
          "type": "address"
        }
      ],
      "name": "balanceOf",
      "outputs": [
        {
          "internalType": "uint256",
          "name": "",
          "type": "uint256"
        }
      ],
      "stateMutability": "view",
      "type": "function"
    },
    {
      "inputs": [
        {
          "internalType": "uint256",
          "name": "tokenId",
          "type": "uint256"
        }
      ],
      "name": "burn",
      "outputs": [],
      "stateMutability": "nonpayable",
      "type": "function"
    },
    {
      "inputs": [],
      "name": "getAllRequests",
      "outputs": [
        {
          "internalType": "uint256[]",
          "name": "",
          "type": "uint256[]"
        },
        {
          "internalType": "address[]",
          "name": "",
          "type": "address[]"
        }
      ],
      "stateMutability": "view",
      "type": "function"
    },
    {
      "inputs": [
        {
          "internalType": "uint256",
          "name": "tokenId",
          "type": "uint256"
        }
      ],
      "name": "getApproved",
      "outputs": [
        {
          "internalType": "address",
          "name": "",
          "type": "address"
        }
      ],
      "stateMutability": "view",
      "type": "function"
    },
    {
      "inputs": [],
      "name": "getLatestTokenId",
      "outputs": [
        {
          "internalType": "uint256",
          "name": "",
          "type": "uint256"
        }
      ],
      "stateMutability": "view",
      "type": "function"
    },
    {
      "inputs": [
        {
          "internalType": "address",
          "name": "user",
          "type": "address"
        }
      ],
      "name": "getMintedTokens",
      "outputs": [
        {
          "internalType": "uint256[]",
          "name": "",
          "type": "uint256[]"
        }
      ],
      "stateMutability": "view",
      "type": "function"
    },
    {
      "inputs": [],
      "name": "initialize",
      "outputs": [],
      "stateMutability": "nonpayable",
      "type": "function"
    },
    {
      "inputs": [
        {
          "internalType": "address",
          "name": "owner",
          "type": "address"
        },
        {
          "internalType": "address",
          "name": "operator",
          "type": "address"
        }
      ],
      "name": "isApprovedForAll",
      "outputs": [
        {
          "internalType": "bool",
          "name": "",
          "type": "bool"
        }
      ],
      "stateMutability": "view",
      "type": "function"
    },
    {
      "inputs": [
        {
          "internalType": "address",
          "name": "to",
          "type": "address"
        },
        {
          "internalType": "uint256",
          "name": "tokenId",
          "type": "uint256"
        },
        {
          "internalType": "string",
          "name": "metadataUrl",
          "type": "string"
        }
      ],
      "name": "mint",
      "outputs": [],
      "stateMutability": "nonpayable",
      "type": "function"
    },
    {
      "inputs": [],
      "name": "name",
      "outputs": [
        {
          "internalType": "string",
          "name": "",
          "type": "string"
        }
      ],
      "stateMutability": "view",
      "type": "function"
    },
    {
      "inputs": [],
      "name": "owner",
      "outputs": [
        {
          "internalType": "address",
          "name": "",
          "type": "address"
        }
      ],
      "stateMutability": "view",
      "type": "function"
    },
    {
      "inputs": [
        {
          "internalType": "uint256",
          "name": "tokenId",
          "type": "uint256"
        }
      ],
      "name": "ownerOf",
      "outputs": [
        {
          "internalType": "address",
          "name": "",
          "type": "address"
        }
      ],
      "stateMutability": "view",
      "type": "function"
    },
    {
      "inputs": [],
      "name": "pause",
      "outputs": [],
      "stateMutability": "nonpayable",
      "type": "function"
    },
    {
      "inputs": [],
      "name": "paused",
      "outputs": [
        {
          "internalType": "bool",
          "name": "",
          "type": "bool"
        }
      ],
      "stateMutability": "view",
      "type": "function"
    },
    {
      "inputs": [
        {
          "internalType": "uint256",
          "name": "tokenId",
          "type": "uint256"
        }
      ],
      "name": "rejectMetadataChange",
      "outputs": [],
      "stateMutability": "nonpayable",
      "type": "function"
    },
    {
      "inputs": [],
      "name": "renounceOwnership",
      "outputs": [],
      "stateMutability": "nonpayable",
      "type": "function"
    },
    {
      "inputs": [
        {
          "internalType": "uint256",
          "name": "tokenId",
          "type": "uint256"
        },
        {
          "internalType": "string",
          "name": "newMetadataUrl",
          "type": "string"
        }
      ],
      "name": "requestMetadataChange",
      "outputs": [],
      "stateMutability": "nonpayable",
      "type": "function"
    },
    {
      "inputs": [
        {
          "internalType": "address",
          "name": "from",
          "type": "address"
        },
        {
          "internalType": "address",
          "name": "to",
          "type": "address"
        },
        {
          "internalType": "uint256",
          "name": "tokenId",
          "type": "uint256"
        }
      ],
      "name": "safeTransferFrom",
      "outputs": [],
      "stateMutability": "nonpayable",
      "type": "function"
    },
    {
      "inputs": [
        {
          "internalType": "address",
          "name": "from",
          "type": "address"
        },
        {
          "internalType": "address",
          "name": "to",
          "type": "address"
        },
        {
          "internalType": "uint256",
          "name": "tokenId",
          "type": "uint256"
        },
        {
          "internalType": "bytes",
          "name": "data",
          "type": "bytes"
        }
      ],
      "name": "safeTransferFrom",
      "outputs": [],
      "stateMutability": "nonpayable",
      "type": "function"
    },
    {
      "inputs": [
        {
          "internalType": "address",
          "name": "operator",
          "type": "address"
        },
        {
          "internalType": "bool",
          "name": "approved",
          "type": "bool"
        }
      ],
      "name": "setApprovalForAll",
      "outputs": [],
      "stateMutability": "nonpayable",
      "type": "function"
    },
    {
      "inputs": [
        {
          "internalType": "bytes4",
          "name": "interfaceId",
          "type": "bytes4"
        }
      ],
      "name": "supportsInterface",
      "outputs": [
        {
          "internalType": "bool",
          "name": "",
          "type": "bool"
        }
      ],
      "stateMutability": "view",
      "type": "function"
    },
    {
      "inputs": [],
      "name": "symbol",
      "outputs": [
        {
          "internalType": "string",
          "name": "",
          "type": "string"
        }
      ],
      "stateMutability": "view",
      "type": "function"
    },
    {
      "inputs": [
        {
          "internalType": "uint256",
          "name": "tokenId",
          "type": "uint256"
        }
      ],
      "name": "tokenURI",
      "outputs": [
        {
          "internalType": "string",
          "name": "",
          "type": "string"
        }
      ],
      "stateMutability": "view",
      "type": "function"
    },
    {
      "inputs": [
        {
          "internalType": "address",
          "name": "from",
          "type": "address"
        },
        {
          "internalType": "address",
          "name": "to",
          "type": "address"
        },
        {
          "internalType": "uint256",
          "name": "tokenId",
          "type": "uint256"
        }
      ],
      "name": "transferFrom",
      "outputs": [],
      "stateMutability": "nonpayable",
      "type": "function"
    },
    {
      "inputs": [
        {
          "internalType": "address",
          "name": "newOwner",
          "type": "address"
        }
      ],
      "name": "transferOwnership",
      "outputs": [],
      "stateMutability": "nonpayable",
      "type": "function"
    },
    {
      "inputs": [],
      "name": "unpause",
      "outputs": [],
      "stateMutability": "nonpayable",
      "type": "function"
    }
  ],
  "bytecode": "0x608060405234801561001057600080fd5b506126df806100206000396000f3fe608060405234801561001057600080fd5b50600436106101c45760003560e01c8063715018a6116100f9578063b88d4fde11610097578063d86ba2b311610071578063d86ba2b31461038e578063e985e9c5146103a1578063f2fde38b146103dd578063fb1a002a146103f057600080fd5b8063b88d4fde14610355578063c87b56dd14610368578063d3fc98641461037b57600080fd5b80638da5cb5b116100d35780638da5cb5b1461031657806395d89b4114610327578063a22cb4651461032f578063a5b8b5741461034257600080fd5b8063715018a6146102fe5780638129fc1c146103065780638456cb591461030e57600080fd5b80633f4ba83a11610166578063434a49a111610140578063434a49a1146102ad5780635c975abb146102cd5780636352211e146102d857806370a08231146102eb57600080fd5b80633f4ba83a1461027f57806342842e0e1461028757806342966c681461029a57600080fd5b8063095ea7b3116101a2578063095ea7b31461023157806323b872dd1461024657806325d112a9146102595780633e390d001461026c57600080fd5b806301ffc9a7146101c957806306fdde03146101f1578063081812fc14610206575b600080fd5b6101dc6101d73660046121b9565b610406565b60405190151581526020015b60405180910390f35b6101f96104a3565b6040516101e8919061222a565b61021961021436600461223d565b610535565b6040516001600160a01b0390911681526020016101e8565b61024461023f366004612272565b61055c565b005b61024461025436600461229c565b610693565b610132545b6040519081526020016101e8565b61024461027a366004612384565b61070a565b6102446107e7565b61024461029536600461229c565b6107f9565b6102446102a836600461223d565b610814565b6102c06102bb3660046123cb565b6108e2565b6040516101e89190612421565b60fb5460ff166101dc565b6102196102e636600461223d565b61094f565b61025e6102f93660046123cb565b6109b4565b610244610a4e565b610244610a60565b610244610c03565b6097546001600160a01b0316610219565b6101f9610c13565b61024461033d366004612434565b610c22565b61024461035036600461223d565b610c2d565b610244610363366004612470565b610d0b565b6101f961037636600461223d565b610d89565b6102446103893660046124ec565b610e80565b61024461039c36600461223d565b610f76565b6101dc6103af366004612543565b6001600160a01b039182166000908152606a6020908152604080832093909416825291909152205460ff1690565b6102446103eb3660046123cb565b610fea565b6103f8611077565b6040516101e8929190612576565b60006001600160e01b031982167f80ac58cd00000000000000000000000000000000000000000000000000000000148061046957506001600160e01b031982167f5b5e139f00000000000000000000000000000000000000000000000000000000145b8061049d57507f01ffc9a7000000000000000000000000000000000000000000000000000000006001600160e01b03198316145b92915050565b6060606580546104b2906125d6565b80601f01602080910402602001604051908101604052809291908181526020018280546104de906125d6565b801561052b5780601f106105005761010080835404028352916020019161052b565b820191906000526020600020905b81548152906001019060200180831161050e57829003601f168201915b5050505050905090565b600061054082611239565b506000908152606960205260409020546001600160a01b031690565b60006105678261094f565b9050806001600160a01b0316836001600160a01b031614156105f65760405162461bcd60e51b815260206004820152602160248201527f4552433732313a20617070726f76616c20746f2063757272656e74206f776e6560448201527f720000000000000000000000000000000000000000000000000000000000000060648201526084015b60405180910390fd5b336001600160a01b0382161480610612575061061281336103af565b6106845760405162461bcd60e51b815260206004820152603d60248201527f4552433732313a20617070726f76652063616c6c6572206973206e6f7420746f60448201527f6b656e206f776e6572206f7220617070726f76656420666f7220616c6c00000060648201526084016105ed565b61068e838361129d565b505050565b61069d338261130b565b6106ff5760405162461bcd60e51b815260206004820152602d60248201527f4552433732313a2063616c6c6572206973206e6f7420746f6b656e206f776e6560448201526c1c881bdc88185c1c1c9bdd9959609a1b60648201526084016105ed565b61068e83838361138a565b610712611583565b61071a6115d6565b336107248361094f565b6001600160a01b0316146107a05760405162461bcd60e51b815260206004820152602160248201527f4f6e6c79204e4654206f776e65722063616e2072657175657374206368616e6760448201527f650000000000000000000000000000000000000000000000000000000000000060648201526084016105ed565b600082815261012f6020908152604080832080546001600160a01b03191633179055610130825290912082516107d892840190612055565b506107e3600160c955565b5050565b6107ef611637565b6107f7611691565b565b61068e83838360405180602001604052806000815250610d0b565b61081c611583565b6108246115d6565b3361082e8261094f565b6001600160a01b0316146108845760405162461bcd60e51b815260206004820152601d60248201527f4f6e6c79204e4654206f776e65722063616e206275726e20746f6b656e00000060448201526064016105ed565b61088d816116e3565b600081815261012d602052604081206108a5916120d9565b600081815261012e60209081526040808320805460ff1916905561012f909152902080546001600160a01b03191690556108df600160c955565b50565b6001600160a01b0381166000908152610131602090815260409182902080548351818402810184019094528084526060939283018282801561094357602002820191906000526020600020905b81548152602001906001019080831161092f575b50505050509050919050565b6000818152606760205260408120546001600160a01b03168061049d5760405162461bcd60e51b815260206004820152601860248201527f4552433732313a20696e76616c696420746f6b656e204944000000000000000060448201526064016105ed565b60006001600160a01b038216610a325760405162461bcd60e51b815260206004820152602960248201527f4552433732313a2061646472657373207a65726f206973206e6f74206120766160448201527f6c6964206f776e6572000000000000000000000000000000000000000000000060648201526084016105ed565b506001600160a01b031660009081526068602052604090205490565b610a56611637565b6107f76000611778565b600054610100900460ff1615808015610a805750600054600160ff909116105b80610a9a5750303b158015610a9a575060005460ff166001145b610b0c5760405162461bcd60e51b815260206004820152602e60248201527f496e697469616c697a61626c653a20636f6e747261637420697320616c72656160448201527f647920696e697469616c697a656400000000000000000000000000000000000060648201526084016105ed565b6000805460ff191660011790558015610b2f576000805461ff0019166101001790555b610ba36040518060400160405280600a81526020017f536f6c617270756e6b73000000000000000000000000000000000000000000008152506040518060400160405280600681526020017f534c52504e4b00000000000000000000000000000000000000000000000000008152506117ca565b610bab61183f565b610bb36118b2565b610bbb611925565b80156108df576000805461ff0019169055604051600181527f7f26b83ff96e1f2b6a682f133852f6798a09c465da95921460cefb38474024989060200160405180910390a150565b610c0b611637565b6107f7611998565b6060606680546104b2906125d6565b6107e33383836119d5565b610c35611637565b610c3d611583565b610c456115d6565b600081815261012f60205260409020546001600160a01b0316610cd05760405162461bcd60e51b815260206004820152602960248201527f4e6f206d65746164617461206368616e6765207265717565737420666f72207460448201527f68697320746f6b656e000000000000000000000000000000000000000000000060648201526084016105ed565b600081815261012f6020908152604080832080546001600160a01b03191690556101309091528120610d01916120d9565b6108df600160c955565b610d15338361130b565b610d775760405162461bcd60e51b815260206004820152602d60248201527f4552433732313a2063616c6c6572206973206e6f7420746f6b656e206f776e6560448201526c1c881bdc88185c1c1c9bdd9959609a1b60648201526084016105ed565b610d8384848484611aa4565b50505050565b600081815261012e602052604090205460609060ff16610deb5760405162461bcd60e51b815260206004820152601460248201527f546f6b656e20646f6573206e6f7420657869737400000000000000000000000060448201526064016105ed565b600082815261012d602052604090208054610e05906125d6565b80601f0160208091040260200160405190810160405280929190818152602001828054610e31906125d6565b80156109435780601f10610e5357610100808354040283529160200191610943565b820191906000526020600020905b815481529060010190602001808311610e615750939695505050505050565b610e88611637565b610e90611583565b610e986115d6565b600082815261012e602052604090205460ff1615610ef85760405162461bcd60e51b815260206004820152601760248201527f546f6b656e20494420616c72656164792065786973747300000000000000000060448201526064016105ed565b610f028383611b2d565b600082815261012d602090815260409091208251610f2292840190612055565b50600082815261012e60209081526040808320805460ff191660019081179091556101328690556001600160a01b0387168452610131835290832080549182018155835291200182905561068e600160c955565b610f7e611583565b610f866115d6565b610f8e611637565b60008181526101306020908152604080832061012d9092529091208154909190610fb7906125d6565b610fc2929190612113565b50600081815261012f6020526040902080546001600160a01b03191690556108df600160c955565b610ff2611637565b6001600160a01b03811661106e5760405162461bcd60e51b815260206004820152602660248201527f4f776e61626c653a206e6577206f776e657220697320746865207a65726f206160448201527f646472657373000000000000000000000000000000000000000000000000000060648201526084016105ed565b6108df81611778565b6060806000805b6101008110156110e357600081815261012e602052604090205460ff1680156110be5750600081815261012f60205260409020546001600160a01b031615155b156110d157816110cd81612611565b9250505b806110db81612611565b91505061107e565b5060008167ffffffffffffffff8111156110ff576110ff6122d8565b604051908082528060200260200182016040528015611128578160200160208202803683370190505b50905060008267ffffffffffffffff811115611146576111466122d8565b60405190808252806020026020018201604052801561116f578160200160208202803683370190505b5090506000805b61010081101561122d57600081815261012e602052604090205460ff1680156111b65750600081815261012f60205260409020546001600160a01b031615155b1561121b57808483815181106111ce576111ce61263a565b6020026020010181815250506111e38161094f565b8383815181106111f5576111f561263a565b6001600160a01b03909216602092830291909101909101528161121781612611565b9250505b8061122581612611565b915050611176565b50919590945092505050565b6000818152606760205260409020546001600160a01b03166108df5760405162461bcd60e51b815260206004820152601860248201527f4552433732313a20696e76616c696420746f6b656e204944000000000000000060448201526064016105ed565b600081815260696020526040902080546001600160a01b0319166001600160a01b03841690811790915581906112d28261094f565b6001600160a01b03167f8c5be1e5ebec7d5bd14f71427d1e84f3dd0314c0f7b2291e5b200ac8c7c3b92560405160405180910390a45050565b6000806113178361094f565b9050806001600160a01b0316846001600160a01b0316148061135e57506001600160a01b038082166000908152606a602090815260408083209388168352929052205460ff165b806113825750836001600160a01b031661137784610535565b6001600160a01b0316145b949350505050565b826001600160a01b031661139d8261094f565b6001600160a01b0316146114015760405162461bcd60e51b815260206004820152602560248201527f4552433732313a207472616e736665722066726f6d20696e636f72726563742060448201526437bbb732b960d91b60648201526084016105ed565b6001600160a01b03821661147c5760405162461bcd60e51b8152602060048201526024808201527f4552433732313a207472616e7366657220746f20746865207a65726f2061646460448201527f726573730000000000000000000000000000000000000000000000000000000060648201526084016105ed565b826001600160a01b031661148f8261094f565b6001600160a01b0316146114f35760405162461bcd60e51b815260206004820152602560248201527f4552433732313a207472616e736665722066726f6d20696e636f72726563742060448201526437bbb732b960d91b60648201526084016105ed565b600081815260696020908152604080832080546001600160a01b03199081169091556001600160a01b0387811680865260688552838620805460001901905590871680865283862080546001019055868652606790945282852080549092168417909155905184937fddf252ad1be2c89b69c2b068fc378daa952ba7f163c4a11628f55a4df523b3ef91a4505050565b60fb5460ff16156107f75760405162461bcd60e51b815260206004820152601060248201527f5061757361626c653a207061757365640000000000000000000000000000000060448201526064016105ed565b600260c95414156116295760405162461bcd60e51b815260206004820152601f60248201527f5265656e7472616e637947756172643a207265656e7472616e742063616c6c0060448201526064016105ed565b600260c955565b600160c955565b6097546001600160a01b031633146107f75760405162461bcd60e51b815260206004820181905260248201527f4f776e61626c653a2063616c6c6572206973206e6f7420746865206f776e657260448201526064016105ed565b611699611cb8565b60fb805460ff191690557f5db9ee0a495bf2e6ff9c91a7834c1ba4fdd244a5e8aa4e537bd38aeae4b073aa335b6040516001600160a01b03909116815260200160405180910390a1565b60006116ee8261094f565b90506116f98261094f565b600083815260696020908152604080832080546001600160a01b03199081169091556001600160a01b0385168085526068845282852080546000190190558785526067909352818420805490911690555192935084927fddf252ad1be2c89b69c2b068fc378daa952ba7f163c4a11628f55a4df523b3ef908390a45050565b609780546001600160a01b038381166001600160a01b0319831681179093556040519116919082907f8be0079c531659141344cd1fd0a4f28419497f9722a3daafe3b4186f6b6457e090600090a35050565b600054610100900460ff166118355760405162461bcd60e51b815260206004820152602b60248201527f496e697469616c697a61626c653a20636f6e7472616374206973206e6f74206960448201526a6e697469616c697a696e6760a81b60648201526084016105ed565b6107e38282611d0a565b600054610100900460ff166118aa5760405162461bcd60e51b815260206004820152602b60248201527f496e697469616c697a61626c653a20636f6e7472616374206973206e6f74206960448201526a6e697469616c697a696e6760a81b60648201526084016105ed565b6107f7611d9c565b600054610100900460ff1661191d5760405162461bcd60e51b815260206004820152602b60248201527f496e697469616c697a61626c653a20636f6e7472616374206973206e6f74206960448201526a6e697469616c697a696e6760a81b60648201526084016105ed565b6107f7611e10565b600054610100900460ff166119905760405162461bcd60e51b815260206004820152602b60248201527f496e697469616c697a61626c653a20636f6e7472616374206973206e6f74206960448201526a6e697469616c697a696e6760a81b60648201526084016105ed565b6107f7611e87565b6119a0611583565b60fb805460ff191660011790557f62e78cea01bee320cd4e420270b5ea74000d11b0c9f74754ebdbfc544b05a2586116c63390565b816001600160a01b0316836001600160a01b03161415611a375760405162461bcd60e51b815260206004820152601960248201527f4552433732313a20617070726f766520746f2063616c6c65720000000000000060448201526064016105ed565b6001600160a01b038381166000818152606a6020908152604080832094871680845294825291829020805460ff191686151590811790915591519182527f17307eab39ab6107e8899845ad3d59bd9653f200f220920489ca2b5937696c31910160405180910390a3505050565b611aaf84848461138a565b611abb84848484611ef2565b610d835760405162461bcd60e51b815260206004820152603260248201527f4552433732313a207472616e7366657220746f206e6f6e20455243373231526560448201527f63656976657220696d706c656d656e746572000000000000000000000000000060648201526084016105ed565b6001600160a01b038216611b835760405162461bcd60e51b815260206004820181905260248201527f4552433732313a206d696e7420746f20746865207a65726f206164647265737360448201526064016105ed565b6000818152606760205260409020546001600160a01b031615611be85760405162461bcd60e51b815260206004820152601c60248201527f4552433732313a20746f6b656e20616c7265616479206d696e7465640000000060448201526064016105ed565b6000818152606760205260409020546001600160a01b031615611c4d5760405162461bcd60e51b815260206004820152601c60248201527f4552433732313a20746f6b656e20616c7265616479206d696e7465640000000060448201526064016105ed565b6001600160a01b038216600081815260686020908152604080832080546001019055848352606790915280822080546001600160a01b0319168417905551839291907fddf252ad1be2c89b69c2b068fc378daa952ba7f163c4a11628f55a4df523b3ef908290a45050565b60fb5460ff166107f75760405162461bcd60e51b815260206004820152601460248201527f5061757361626c653a206e6f742070617573656400000000000000000000000060448201526064016105ed565b600054610100900460ff16611d755760405162461bcd60e51b815260206004820152602b60248201527f496e697469616c697a61626c653a20636f6e7472616374206973206e6f74206960448201526a6e697469616c697a696e6760a81b60648201526084016105ed565b8151611d88906065906020850190612055565b50805161068e906066906020840190612055565b600054610100900460ff16611e075760405162461bcd60e51b815260206004820152602b60248201527f496e697469616c697a61626c653a20636f6e7472616374206973206e6f74206960448201526a6e697469616c697a696e6760a81b60648201526084016105ed565b6107f733611778565b600054610100900460ff16611e7b5760405162461bcd60e51b815260206004820152602b60248201527f496e697469616c697a61626c653a20636f6e7472616374206973206e6f74206960448201526a6e697469616c697a696e6760a81b60648201526084016105ed565b60fb805460ff19169055565b600054610100900460ff166116305760405162461bcd60e51b815260206004820152602b60248201527f496e697469616c697a61626c653a20636f6e7472616374206973206e6f74206960448201526a6e697469616c697a696e6760a81b60648201526084016105ed565b60006001600160a01b0384163b1561204a57604051630a85bd0160e11b81526001600160a01b0385169063150b7a0290611f36903390899088908890600401612650565b602060405180830381600087803b158015611f5057600080fd5b505af1925050508015611f80575060408051601f3d908101601f19168201909252611f7d9181019061268c565b60015b612030573d808015611fae576040519150601f19603f3d011682016040523d82523d6000602084013e611fb3565b606091505b5080516120285760405162461bcd60e51b815260206004820152603260248201527f4552433732313a207472616e7366657220746f206e6f6e20455243373231526560448201527f63656976657220696d706c656d656e746572000000000000000000000000000060648201526084016105ed565b805181602001fd5b6001600160e01b031916630a85bd0160e11b149050611382565b506001949350505050565b828054612061906125d6565b90600052602060002090601f01602090048101928261208357600085556120c9565b82601f1061209c57805160ff19168380011785556120c9565b828001600101855582156120c9579182015b828111156120c95782518255916020019190600101906120ae565b506120d592915061218e565b5090565b5080546120e5906125d6565b6000825580601f106120f5575050565b601f0160209004906000526020600020908101906108df919061218e565b82805461211f906125d6565b90600052602060002090601f01602090048101928261214157600085556120c9565b82601f1061215257805485556120c9565b828001600101855582156120c957600052602060002091601f016020900482015b828111156120c9578254825591600101919060010190612173565b5b808211156120d5576000815560010161218f565b6001600160e01b0319811681146108df57600080fd5b6000602082840312156121cb57600080fd5b81356121d6816121a3565b9392505050565b6000815180845260005b81811015612203576020818501810151868301820152016121e7565b81811115612215576000602083870101525b50601f01601f19169290920160200192915050565b6020815260006121d660208301846121dd565b60006020828403121561224f57600080fd5b5035919050565b80356001600160a01b038116811461226d57600080fd5b919050565b6000806040838503121561228557600080fd5b61228e83612256565b946020939093013593505050565b6000806000606084860312156122b157600080fd5b6122ba84612256565b92506122c860208501612256565b9150604084013590509250925092565b634e487b7160e01b600052604160045260246000fd5b600067ffffffffffffffff80841115612309576123096122d8565b604051601f8501601f19908116603f01168101908282118183101715612331576123316122d8565b8160405280935085815286868601111561234a57600080fd5b858560208301376000602087830101525050509392505050565b600082601f83011261237557600080fd5b6121d6838335602085016122ee565b6000806040838503121561239757600080fd5b82359150602083013567ffffffffffffffff8111156123b557600080fd5b6123c185828601612364565b9150509250929050565b6000602082840312156123dd57600080fd5b6121d682612256565b600081518084526020808501945080840160005b83811015612416578151875295820195908201906001016123fa565b509495945050505050565b6020815260006121d660208301846123e6565b6000806040838503121561244757600080fd5b61245083612256565b91506020830135801515811461246557600080fd5b809150509250929050565b6000806000806080858703121561248657600080fd5b61248f85612256565b935061249d60208601612256565b925060408501359150606085013567ffffffffffffffff8111156124c057600080fd5b8501601f810187136124d157600080fd5b6124e0878235602084016122ee565b91505092959194509250565b60008060006060848603121561250157600080fd5b61250a84612256565b925060208401359150604084013567ffffffffffffffff81111561252d57600080fd5b61253986828701612364565b9150509250925092565b6000806040838503121561255657600080fd5b61255f83612256565b915061256d60208401612256565b90509250929050565b60408152600061258960408301856123e6565b82810360208481019190915284518083528582019282019060005b818110156125c95784516001600160a01b0316835293830193918301916001016125a4565b5090979650505050505050565b600181811c908216806125ea57607f821691505b6020821081141561260b57634e487b7160e01b600052602260045260246000fd5b50919050565b600060001982141561263357634e487b7160e01b600052601160045260246000fd5b5060010190565b634e487b7160e01b600052603260045260246000fd5b60006001600160a01b0380871683528086166020840152508360408301526080606083015261268260808301846121dd565b9695505050505050565b60006020828403121561269e57600080fd5b81516121d6816121a356fea26469706673582212207c6a8a38cb83ae4df006e7863eed081151c871320c993631fb85e4e0fba4456464736f6c63430008090033",
  "linkReferences": {},
  "deployedLinkReferences": {}
}